S00E00006578616D4C322E73726563ED
S11300000C94FE000C941C010C941C010C941C0117
S11300100C941C010C941C010C941C010C941C01E8
S11300200C941C010C941C010C941C010C941C01D8
S11300300C941C010C941C010C941C010C941C01C8
S11300400C941C010C941C010C941C010C941C01B8
S11300500C941C010C941C010C941C010C941C01A8
S11300600C941C010C941C010C941C010C941C0198
S11300700C941C010C941C010C941C010C941C0188
S11300800C941C010C941C010C941C010C941C0178
S11300900C941C010C941C010C941C010C941C0168
S11300A00C941C010C941C010C941C010C941C0158
S11300B00C941C010C941C010C941C010C941C0148
S11300C00C941C010C941C010C941C010C941C0138
S11300D00C941C010C941C010C941C010C941C0128
S11300E00C941C010C941C010C941C010C941C0118
S11300F00C941C010C941C010C941C010C941C0108
S11301000C941C010C941C010C941C010C941C01F7
S11301100C941C010C941C010C941C010C941C01E7
S11301200C941C010C941C010C941C010C941C01D7
S11301300C941C010C945B010C941C010C941C0188
S11301400C941C010C941C010C941C010C9495013E
S11301500C941C010C941C010C941C010C941C01A7
S11301600C941C010C941C010C941C010C941C0197
S11301700C941C010C941C010C941C010C941C0187
S11301800C941C010C941C010C941C010C941C0177
S11301900C941C010C941C010C941C010C941C0167
S11301A00C941C010C941C010C941C010C941C0157
S11301B00C941C010C941C010C941C010C941C0147
S11301C00C941C010C941C010C941C010C941C0137
S11301D00C941C010C941C010C941C010C941C0127
S11301E00C941C010C941C010C941C010C941C0117
S11301F00C941C010C941C010C941C0111241FBEB2
S1130200CFEFCDBFDFE3DEBF00E00CBF18BE19BEE9
S11302101ABE1BBE10E2A0E0B0E2EEE4F4E000E09F
S11302200BBF02C007900D92A030B107D9F71BBED7
S11302300E94CF010C9425020C940000CF93DF930D
S1130240CDB7DEB781E099E0FC01108286E299E047
S113025021E0FC01208387E299E0FC01108282EA1C
S113026090E022EA30E0F90120812260FC01208341
S113027078940000DF91CF910895CF93DF93CDB7A9
S1130280DEB781E499E0FC01108286E699E0FC0186
S1130290108287E699E0FC01108282EA90E022EA6B
S11302A030E0F90120812160FC0120837894000072
S11302B0DF91CF9108951F920F9200903F000F920B
S11302C01124009038000F921092380000903A00E8
S11302D00F9210923A0000903B000F9210923B0054
S11302E02F938F939F93EF93FF93CF93DF93CDB788
S11302F0DEB787E496E021E0FC0120830000DF9173
S1130300CF91FF91EF919F918F912F910F90009238
S11303103B000F9000923A000F90009238000F902B
S113032000923F000F901F9018951F920F9200901B
S11303303F000F921124009038000F921092380061
S113034000903A000F9210923A0000903B000F92F6
S113035010923B002F938F939F93EF93FF93CF9330
S1130360DF93CDB7DEB787E496E021E0FC0120837C
S11303700000DF91CF91FF91EF919F918F912F9189
S11303800F9000923B000F9000923A000F90009261
S113039038000F9000923F000F901F901895CF9354
S11303A0DF93CDB7DEB782E896E023E0FC0120833B
S11303B00E941E010E943D0184E496E02FEFFC019F
S11303C0208381E496E02FEFFC01208314C080E0B9
S11303D099E0FC018081873029F080E099E027E0F2
S11303E0FC01208384E496E020E239E0F9012081D5
S11303F03181FC01208388E896E0FC018081813012
S113040031F380E099E0FC01108214C080E499E0AB
S1130410FC018081873029F080E499E027E0FC0129
S1130420208384E496E020E639E0F90120813181DB
S1130430FC01208388E896E0FC018081823031F35E
S111044080E499E0FC011082C1CFF894FFCF54
S9030000FC
