:100000000C94FE000C941C010C941C010C941C011B
:100010000C941C010C941C010C941C010C941C01EC
:100020000C941C010C941C010C941C010C941C01DC
:100030000C941C010C941C010C941C010C941C01CC
:100040000C941C010C941C010C941C010C941C01BC
:100050000C941C010C941C010C941C010C941C01AC
:100060000C941C010C941C010C941C010C941C019C
:100070000C941C010C941C010C941C010C941C018C
:100080000C941C010C941C010C941C010C941C017C
:100090000C941C010C941C010C941C010C941C016C
:1000A0000C941C010C941C010C941C010C941C015C
:1000B0000C941C010C941C010C941C010C941C014C
:1000C0000C941C010C941C010C941C010C941C013C
:1000D0000C941C010C941C010C941C010C941C012C
:1000E0000C941C010C941C010C941C010C941C011C
:1000F0000C941C010C941C010C941C010C941C010C
:100100000C941C010C941C010C941C010C941C01FB
:100110000C941C010C941C010C941C010C941C01EB
:100120000C941C010C941C010C941C010C941C01DB
:100130000C941C010C941C010C941C010C941C01CB
:100140000C941C010C941C010C941C010C941C01BB
:100150000C941C010C941C010C941C010C941C01AB
:100160000C941C010C941C010C941C010C941C019B
:100170000C941C010C941C010C941C010C941C018B
:100180000C941C010C941C010C941C010C941C017B
:100190000C941C010C941C010C941C010C941C016B
:1001A0000C941C010C941C010C941C010C941C015B
:1001B0000C941C010C941C010C941C010C941C014B
:1001C0000C941C010C941C010C941C010C941C013B
:1001D0000C941C010C941C010C941C010C941C012B
:1001E0000C941C010C941C010C941C010C941C011B
:1001F0000C941C010C941C010C941C0111241FBEB6
:10020000CFEFCDBFDFE3DEBF00E00CBF18BE19BEED
:100210001ABE1BBE10E2A0E0B0E2EEE8F4E000E09F
:100220000BBF02C007900D92AC3FB107D9F71BBEC0
:100230000E94C6010C9445020C940000CF93DF93FA
:10024000CDB7DEB780E696E028E0FC01258380E6A6
:1002500096E028E0FC01218380E696E024E0FC01A2
:10026000228380EA99E02BE4FC01268380EA99E06E
:1002700020EAFC01278380EA99E023E2FC01258340
:1002800080EA99E028E1FC0124830000DF91CF910E
:100290000895CF93DF931F92CDB7DEB78983000017
:1002A00080EA99E0FC018181882F90E08072992793
:1002B000892BB1F380EA99E02981FC0120830000B9
:1002C0000F90DF91CF910895CF93DF931F921F92EC
:1002D000CDB7DEB789839A830BC089819A819C014F
:1002E0002F5F3F4F29833A83FC0180810E9449019F
:1002F00089819A81FC018081882379F700000F9021
:100300000F90DF91CF910895CF93DF93CDB7DEB7F4
:10031000000080EA99E0FC0181818823D4F780EA1B
:1003200099E0FC018081DF91CF9108950F931F9395
:10033000CF93DF9300D01F92CDB7DEB78B839C8322
:1003400019821A8210C089819A812B813C8189018E
:10035000080F191F0E948401F801808389819A8106
:10036000019689839A838B819C810E943C029C0127
:1003700089819A818217930730F300002496CDBFBC
:10038000DEBFDF91CF911F910F910895CF93DF933F
:10039000CDB7DEB76097CDBFDEBF0E941E0180E003
:1003A00090E20E9464018BE890E20E94640106C022
:1003B0000E9484018A878A850E9449018A85823544
:1003C00019F08A858735A1F786EE90E20E946401D4
:1003D00008C0CE010B960E949601CE010B960E949A
:1003E00064018B858033A9F78B85813391F78B85E9
:1003F000823379F78B85833361F78A858235A9F457
:10040000CE010B96092E000CAA0BBB0B89839A8395
:10041000AB83BC8389819A81AB81BC810BB6ABBFB6
:10042000FC0180810BBE8D83BECF8A85873509F0A4
:10043000BACF82EF90E20E946401CE010F960E9433
:100440009601CE010F960E946401CE010B96092EF3
:10045000000CAA0BBB0B8E839F83A887B987CE01A4
:100460000F96282F8E819F81A885B9850BB6ABBFCB
:10047000FC0120830BBE97CFFC0101900020E9F71F
:0E048000809590958E0F9F1F0895F894FFCFE2
:10048E0057656C636F6D6520746F20746865204DC1
:10049E00656D6F7279204755492120546869732024
:1004AE0070726F6772616D20616C6C6F7773206113
:1004BE00207573657220746F20766965772061737D
:1004CE002077656C6C206173206564697420616EA1
:1004DE00792064617461206D656D6F7279206C6F27
:1004EE00636174696F6E2077697468696E207468D1
:1004FE006520636F6E6E6563746564204154786D1C
:10050E006567613132384131552E00546F20726566
:10051E0061642066726F6D2061206D656D6F7279FA
:10052E00206C6F636174696F6E2C20747970652016
:10053E002752272E20546F20777269746520746FAE
:10054E002061206D656D6F7279206C6F63617469C7
:10055E006F6E2C2074797065202757272E20285215
:10056E002F57293A2000416464726573733A203024
:0C057E007800446174613A20307800007D
:00000001FF
