:100000000C94FE000C9416010C9416010C9416012D
:100010000C9416010C9416010C9416010C94160104
:100020000C9416010C9416010C9416010C941601F4
:100030000C9416010C9416010C9416010C941601E4
:100040000C9416010C9416010C9416010C941601D4
:100050000C9416010C9416010C9416010C941601C4
:100060000C9416010C9416010C9416010C941601B4
:100070000C9416010C9416010C9416010C941601A4
:100080000C9416010C9416010C9416010C94160194
:100090000C9416010C9416010C9416010C94160184
:1000A0000C9416010C9416010C9416010C94160174
:1000B0000C9416010C9416010C9416010C94160164
:1000C0000C9416010C9416010C9416010C94160154
:1000D0000C9416010C9416010C9416010C94160144
:1000E0000C9416010C9416010C9416010C94160134
:1000F0000C9416010C9416010C9416010C94160124
:100100000C9416010C9416010C9416010C94160113
:100110000C9416010C9416010C9416010C94C70152
:100120000C9416010C9416010C9416010C941601F3
:100130000C9416010C9416010C9416010C941601E3
:100140000C9416010C9416010C9416010C941601D3
:100150000C9416010C9416010C9416010C941601C3
:100160000C941B020C9416010C9416010C941601AD
:100170000C9416010C9416010C9416010C941601A3
:100180000C9416010C9416010C9416010C94160193
:100190000C9416010C9416010C9416010C94160183
:1001A0000C9416010C9416010C9416010C94160173
:1001B0000C9416010C9416010C9416010C94160163
:1001C0000C9416010C9416010C9416010C94160153
:1001D0000C9416010C9416010C9416010C94160143
:1001E0000C9416010C9416010C9416010C94160133
:1001F0000C9416010C9416010C94160111241FBEC8
:10020000CFEFCDBFDFE3DEBF00E00CBF18BE19BEED
:100210001ABE1BBE20E2A0E0B0E201C01D92A930D0
:10022000B207E1F70E945A020C94C2020C9400003B
:10023000CF93DF93CDB7DEB780E696E028E0FC01F0
:10024000258380E696E028E0FC01218380E696E0A5
:1002500024E0FC01228380EA99E02BE4FC01268360
:1002600080EA99E020EAFC01278380EA99E023E014
:10027000FC01258380EA99E028E1FC01248380EADF
:1002800099E020E2FC01238382EA90E022EA30E058
:10029000F90120812260FC01208378940000DF9125
:1002A000CF910895CF93DF931F92CDB7DEB78983A7
:1002B000000080EA99E0FC018181882F90E0807243
:1002C0009927892BB1F380EA99E02981FC012083E9
:1002D00000000F90DF91CF910895CF93DF93CDB7BA
:1002E000DEB781E098E0FC01108286E298E027E02A
:1002F000FC01208387E298E0FC01108280E891E015
:1003000020ECFC01208380E098E027E0FC012083C2
:100310000000DF91CF910895CF93DF93CDB7DEB783
:1003200081E092E020E1FC01208382E092E020E382
:10033000FC01208384E092E027E0FC01208382E03E
:1003400096E022E4FC01208380E292E023E0FC01BD
:10035000208381E292E02AE0FC01208382E292E0A5
:1003600021E0FC01208382EA90E021E0FC0120836F
:10037000789483E092E021E0FC01208380E092E029
:1003800021E0FC0120830000DF91CF9108951F92AE
:100390000F9200903F000F921124009038000F92AE
:1003A0001092380000903A000F9210923A0000909C
:1003B0003B000F9210923B002F933F938F939F939C
:1003C000EF93FF93CF93DF93CDB7DEB784E292E054
:1003D000FC0180819181809300209093012081E035
:1003E00090E0809302209093032087E696E020E13E
:1003F000FC01208387E096E027E036E0F9012081C8
:100400002062FC0120830000DF91CF91FF91EF91EA
:100410009F918F913F912F910F9000923B000F90F1
:1004200000923A000F90009238000F9000923F0027
:100430000F901F9018951F920F9200903F000F92FF
:100440001124009038000F921092380000903A006A
:100450000F9210923A0000903B000F9210923B00D6
:100460008F939F93EF93FF93CF93DF93CDB7DEB737
:1004700080EA99E0FC0180818093072081E090E090
:1004800080930420909305200000DF91CF91FF918D
:10049000EF919F918F910F9000923B000F900092EF
:1004A0003A000F90009238000F9000923F000F909A
:1004B0001F901895CF93DF93CDB7DEB785E696E012
:1004C00020E1FC01208381E696E020E1FC0120830D
:1004D00085E096E025E036E0F90120812062FC010C
:1004E000208381E096E021E036E0F901208120625E
:1004F000FC0120830E946D010E948C010E94180162
:1005000017C010920420109205208091072081339B
:1005100031F481E292E02AE0FC01208309C080915D
:100520000720823329F481E292E021E2FC0120835A
:100530008091042090910520892B19F71CC01092FE
:10054000022010920320809100209091012080537E
:10055000809306208091002090910120892F992777
:10056000805380930820809108200E94520180913E
:1005700006200E9452018091022090910320892B35
:08058000F1F6BECFF894FFCFA5
:00000001FF
