:020000020000FC
:02000000FFC13E
:0201A0006AC132
:10040000CFEFCDBFCFE3CEBF0FEF0093440601E0A7
:100410000093410610E50093640600E7009361062F
:1004200000E00093010904EC0093260900E000932A
:10043000270907E0009300090DD001E00093410671
:100440000091200900FFFCCF01E0009341061093CA
:100450006706F6CF04E00093AA0604E00093A20624
:1004600001E00093A90601E00093B20601E00093C9
:10047000A200789408952F9321E02093AC0616FDF6
:0C04800002C010E301C010E52F91189598
:00000001FF
