:100000000C94FE000C940E010C940E010C940E0145
:100010000C940E010C940E010C940E010C940E0124
:100020000C940E010C940E010C940E010C940E0114
:100030000C940E010C940E010C940E010C940E0104
:100040000C940E010C940E010C940E010C940E01F4
:100050000C940E010C940E010C940E010C940E01E4
:100060000C940E010C940E010C940E010C940E01D4
:100070000C940E010C940E010C940E010C940E01C4
:100080000C940E010C940E010C940E010C940E01B4
:100090000C940E010C940E010C940E010C940E01A4
:1000A0000C940E010C940E010C940E010C940E0194
:1000B0000C940E010C940E010C940E010C940E0184
:1000C0000C940E010C940E010C940E010C940E0174
:1000D0000C940E010C940E010C940E010C940E0164
:1000E0000C940E010C940E010C940E010C940E0154
:1000F0000C940E010C940E010C940E010C940E0144
:100100000C940E010C940E010C940E010C940E0133
:100110000C940E010C940E010C940E010C940E0123
:100120000C940E010C940E010C940E010C940E0113
:100130000C940E010C940E010C940E010C940E0103
:100140000C940E010C940E010C940E010C940E01F3
:100150000C940E010C940E010C940E010C940E01E3
:100160000C940E010C940E010C940E010C940E01D3
:100170000C940E010C940E010C940E010C940E01C3
:100180000C940E010C940E010C940E010C940E01B3
:100190000C940E010C940E010C940E010C940E01A3
:1001A0000C940E010C940E010C940E010C940E0193
:1001B0000C940E010C940E010C940E010C940E0183
:1001C0000C940E010C940E010C940E010C940E0173
:1001D0000C940E010C940E010C940E010C940E0163
:1001E0000C940E010C940E010C940E010C940E0153
:1001F0000C940E010C940E010C940E0111241FBEE0
:10020000CFEFCDBFDFE3DEBF00E00CBF18BE19BEED
:100210001ABE1BBE0E9410010C9456010C940000E3
:10022000CF93DF93CDB7DEB70E941A0183E50E941A
:100230004001FCCFCF93DF93CDB7DEB780EA96E0E5
:100240002CE2FC01258380E096E020E1FC0126837E
:1002500080EA96E02EEAFC01218380E096E020E12E
:10026000FC01218380EA96E020E4FC01228380ECFB
:100270009BE02CE5FC0120830000DF91CF910895E5
:10028000CF93DF931F92CDB7DEB7898380EC9BE0DD
:100290002981FC012383000080EC9BE020E8FC0125
:1002A000228300000F90DF91CF910895F894FFCF43
:00000001FF
